:100000000C9457000C9469000C9469000C946900DE
:100010000C9469000C9469000C9469000C946900BC
:100020000C9469000C9469000C9469000C946900AC
:100030000C9469000C9469000C9469000C9469009C
:100040000C9480010C9469000C9469000C94690074
:100050000C9469000C9469000C9469000C9469007C
:100060000C94CA010C9469000000000025002800CF
:100070002B00040404040404040402020202020229
:10008000030303030303010204081020408001025C
:1000900004081020010204081020000000080002DB
:1000A000010000030407000000000000000011240C
:1000B0001FBECFEFD8E0DEBFCDBF21E0A0E0B1E0B2
:1000C00001C01D92AE39B207E1F70E94E5020C941F
:1000D000A8030C94000090E0FC01E656FF4F249129
:1000E000FC01EA57FF4F3491FC01EE58FF4FE491B9
:1000F000EE23C9F0222339F0233001F1A8F4213096
:1001000019F1223029F1F0E0EE0FFF1FE859FF4FFF
:10011000A591B4918FB7F894EC91611126C03095F8
:100120003E233C938FBF08952730A9F02830C9F0B3
:10013000243049F7809180008F7D03C0809180003A
:100140008F7780938000DFCF84B58F7784BDDBCF3E
:1001500084B58F7DFBCF8091B0008F778093B00006
:10016000D2CF8091B0008F7DF9CF3E2BDACF209196
:100170002701260F3327331F21323105ECF420915C
:100180004B01FC0190E080E0243069F082E00895AA
:10019000A09127012191AC01495F5E4FA40FB52FBB
:1001A000B11D2C930196861798F380912701680F53
:1001B0006093270180E0089581E0089508958FEF0E
:1001C0009FEF08958FEF9FEF08958091000190E0D9
:1001D0009195819591090895CF93DF93CB01EA0121
:1001E000642F0E94B700CE01DF91CF910895CF9385
:1001F000DF931F92CDB7DEB7698361E0CE01019630
:100200000E94B70081E090E00F90DF91CF910895B8
:1002100090E080E008951F93CF93DF9385ED809366
:10022000BC008091030190910401A0910501B0915F
:1002300006010796A11DB11D23E0B695A7959795D8
:1002400087952A95D1F72091BC0024FD03C0109218
:100250004B0152C04091030150910401609105018E
:1002600070910601452B462B472B69F30097A1059A
:10027000B10541F02AE22A95F1F700C00197A109E2
:10028000B109E1CF80910201C1E0C093010188234F
:1002900099F1D091B8001091BA008091BC008A7B8E
:1002A0008093BC0060E082E10E946B0060E083E12B
:1002B0000E946B0010924B01C0934D0110924C01B3
:1002C00061E082E10E946B0061E083E10E946B00CB
:1002D0008091B9008E7F8093B9008091B9008D7FA5
:1002E0008093B90088E48093B80085E48093BC00D3
:1002F0001093BA00D093B800DF91CF911F91089569
:100300001F920F920FB60F9211242F933F938F934A
:100310009F93AF93BF9380919A0190919B01A0917D
:100320009C01B0919D013091990123E0230F2D375D
:1003300058F50196A11DB11D2093990180939A0152
:1003400090939B01A0939C01B0939D018091950196
:1003500090919601A0919701B09198010196A11DED
:10036000B11D8093950190939601A0939701B0934E
:100370009801BF91AF919F918F913F912F910F90D5
:100380000FBE0F901F90189526E8230F0296A11D0F
:10039000B11DD2CF1F920F920FB60F9211242F933F
:1003A0003F934F935F936F937F938F939F93AF93FD
:1003B000BF93EF93FF938091B900887F803609F453
:1003C0004AC0F0F5883209F4A5C018F5803109F467
:1003D00099C0B8F4882309F4F5C0883009F492C0B4
:1003E000FF91EF91BF91AF919F918F917F916F910D
:1003F0005F914F913F912F910F900FBE0F901F90E3
:100400001895883109F486C0803251F780934A01EB
:1004100014C0803409F49BC040F48033B9F38833AE
:10042000F9F680934A0185ECAEC0803509F483C0AB
:10043000883509F494C0883499F60E940B01D0CF16
:10044000883909F48AC038F5883729F050F488369D
:1004500011F0803729F683E080934B011092490117
:1004600055C0883809F479C0803919F0803809F00E
:10047000B7CF80914901803208F06FC0E091490107
:1004800081E08E0F809349018091BB00F0E0E75D31
:10049000FE4F80833BC0803B39F0D0F4803A09F4B2
:1004A00077C0883A09F09CCF84E080934B0110928A
:1004B000280110922701F0E0E0E0099580912701E2
:1004C00081110FC081E0809327011092070109C0BC
:1004D000803C09F4A8CF883C09F4A5CF883B09F0FB
:1004E0007FCFE091280181E08E0F80932801F0E01A
:1004F000E95FFE4F80818093BB009091280180913D
:10050000270129C0809170018093BB0085EC809306
:10051000BC0066CF90916F0180916E01981758F5DD
:10052000E0916F0181E08E0F80936F01F0E0E25B5C
:10053000FE4F8081E9CFE0916F0181E08E0F8093C3
:100540006F018091BB00F0E0E25BFE4F80839091F1
:100550006F0180916E019817C8F285E8D8CFE091BD
:100560006F0181E08E0F80936F018091BB00F0E0FE
:10057000E25BFE4F808380914D0181115ECF81E06F
:1005800080934C0184EA8093BC0010924B0128CFE9
:1005900085EC8093BC0010924B0180914901803220
:1005A00030F4E0914901F0E0E75DFE4F1082609188
:1005B000490170E089E291E0F0E0E0E009951092F5
:1005C00049010ECF10924A0138CF789484B58260E9
:1005D00084BD84B5816084BD85B5826085BD85B5E7
:1005E000816085BD80916E00816080936E00109265
:1005F00081008091810082608093810080918100E0
:100600008160809381008091800081608093800070
:100610008091B10084608093B1008091B0008160CE
:100620008093B00080917A00846080937A008091FA
:100630007A00826080937A0080917A008160809352
:100640007A0080917A00806880937A001092C100CD
:1006500083E791E09093940180939301109272014B
:1006600010927101F894F894579A80E18A95F1F705
:10067000579885E08A95F1F70000579A80E18A95AE
:10068000F1F7579885E08A95F1F70000579A80E1D5
:100690008A95F1F7579885E08A95F1F70000579A07
:1006A00080E18A95F1F7579885E08A95F1F7000087
:1006B000579A80E18A95F1F7579885E08A95F1F786
:1006C0000000579A80E18A95F1F7579885E08A955E
:1006D000F1F70000579A80E18A95F1F7579885E085
:1006E0008A95F1F70000579A85E08A95F1F70000A6
:1006F000579880E18A95F1F7579A85E08A95F1F746
:100700000000579880E18A95F1F74F9917C088E06B
:100710008A95F1F789B18078E0919301F091940185
:100720008193F0939401E0939301809171019091F2
:100730007201019690937201809371018091710111
:100740009091720181970CF378947894FFCF08957B
:04075000F894FFCF4B
:00000001FF
